{
  "contractName": "MultiSigWallet",
  "abi": [
    {
      "inputs": [
        {
          "internalType": "address[]",
          "name": "_owners",
          "type": "address[]"
        },
        {
          "internalType": "uint256",
          "name": "_confirmationsRequired",
          "type": "uint256"
        }
      ],
      "stateMutability": "nonpayable",
      "type": "constructor"
    },
    {
      "anonymous": false,
      "inputs": [
        {
          "indexed": true,
          "internalType": "address",
          "name": "owner",
          "type": "address"
        },
        {
          "indexed": true,
          "internalType": "uint256",
          "name": "txIndex",
          "type": "uint256"
        }
      ],
      "name": "ConfirmTransaction",
      "type": "event"
    },
    {
      "anonymous": false,
      "inputs": [
        {
          "indexed": true,
          "internalType": "address",
          "name": "sender",
          "type": "address"
        },
        {
          "indexed": false,
          "internalType": "uint256",
          "name": "amount",
          "type": "uint256"
        },
        {
          "indexed": false,
          "internalType": "uint256",
          "name": "balance",
          "type": "uint256"
        }
      ],
      "name": "Deposit",
      "type": "event"
    },
    {
      "anonymous": false,
      "inputs": [
        {
          "indexed": true,
          "internalType": "address",
          "name": "owner",
          "type": "address"
        },
        {
          "indexed": true,
          "internalType": "uint256",
          "name": "txIndex",
          "type": "uint256"
        }
      ],
      "name": "ExecuteTransaction",
      "type": "event"
    },
    {
      "anonymous": false,
      "inputs": [
        {
          "indexed": true,
          "internalType": "address",
          "name": "owner",
          "type": "address"
        },
        {
          "indexed": true,
          "internalType": "uint256",
          "name": "txIndex",
          "type": "uint256"
        }
      ],
      "name": "RevokeConfirmation",
      "type": "event"
    },
    {
      "anonymous": false,
      "inputs": [
        {
          "indexed": true,
          "internalType": "address",
          "name": "owner",
          "type": "address"
        },
        {
          "indexed": true,
          "internalType": "address",
          "name": "to",
          "type": "address"
        },
        {
          "indexed": true,
          "internalType": "uint256",
          "name": "txIndex",
          "type": "uint256"
        },
        {
          "indexed": false,
          "internalType": "uint256",
          "name": "value",
          "type": "uint256"
        },
        {
          "indexed": false,
          "internalType": "bytes",
          "name": "data",
          "type": "bytes"
        }
      ],
      "name": "SubmitTransaction",
      "type": "event"
    },
    {
      "inputs": [],
      "name": "confirmationsRequired",
      "outputs": [
        {
          "internalType": "uint256",
          "name": "",
          "type": "uint256"
        }
      ],
      "stateMutability": "view",
      "type": "function"
    },
    {
      "inputs": [
        {
          "internalType": "address",
          "name": "",
          "type": "address"
        }
      ],
      "name": "isOwner",
      "outputs": [
        {
          "internalType": "bool",
          "name": "",
          "type": "bool"
        }
      ],
      "stateMutability": "view",
      "type": "function"
    },
    {
      "inputs": [
        {
          "internalType": "uint256",
          "name": "",
          "type": "uint256"
        }
      ],
      "name": "owners",
      "outputs": [
        {
          "internalType": "address",
          "name": "",
          "type": "address"
        }
      ],
      "stateMutability": "view",
      "type": "function"
    },
    {
      "inputs": [
        {
          "internalType": "uint256",
          "name": "",
          "type": "uint256"
        }
      ],
      "name": "transactions",
      "outputs": [
        {
          "internalType": "address",
          "name": "to",
          "type": "address"
        },
        {
          "internalType": "uint256",
          "name": "value",
          "type": "uint256"
        },
        {
          "internalType": "bytes",
          "name": "data",
          "type": "bytes"
        },
        {
          "internalType": "bool",
          "name": "executed",
          "type": "bool"
        },
        {
          "internalType": "uint256",
          "name": "confirmations",
          "type": "uint256"
        }
      ],
      "stateMutability": "view",
      "type": "function"
    },
    {
      "stateMutability": "payable",
      "type": "receive"
    },
    {
      "inputs": [
        {
          "internalType": "address",
          "name": "_to",
          "type": "address"
        },
        {
          "internalType": "uint256",
          "name": "_value",
          "type": "uint256"
        },
        {
          "internalType": "bytes",
          "name": "_data",
          "type": "bytes"
        }
      ],
      "name": "submitTransaction",
      "outputs": [],
      "stateMutability": "nonpayable",
      "type": "function"
    },
    {
      "inputs": [
        {
          "internalType": "uint256",
          "name": "_txIndex",
          "type": "uint256"
        }
      ],
      "name": "confirmTransaction",
      "outputs": [],
      "stateMutability": "nonpayable",
      "type": "function"
    },
    {
      "inputs": [
        {
          "internalType": "uint256",
          "name": "_txIndex",
          "type": "uint256"
        }
      ],
      "name": "executeTransaction",
      "outputs": [],
      "stateMutability": "nonpayable",
      "type": "function"
    },
    {
      "inputs": [
        {
          "internalType": "uint256",
          "name": "_txIndex",
          "type": "uint256"
        }
      ],
      "name": "revokeConfirmation",
      "outputs": [],
      "stateMutability": "nonpayable",
      "type": "function"
    },
    {
      "inputs": [],
      "name": "getOwners",
      "outputs": [
        {
          "internalType": "address[]",
          "name": "",
          "type": "address[]"
        }
      ],
      "stateMutability": "view",
      "type": "function"
    },
    {
      "inputs": [],
      "name": "getTransactionCount",
      "outputs": [
        {
          "internalType": "uint256",
          "name": "",
          "type": "uint256"
        }
      ],
      "stateMutability": "view",
      "type": "function"
    },
    {
      "inputs": [
        {
          "internalType": "uint256",
          "name": "_txIndex",
          "type": "uint256"
        }
      ],
      "name": "getTransaction",
      "outputs": [
        {
          "internalType": "address",
          "name": "to",
          "type": "address"
        },
        {
          "internalType": "uint256",
          "name": "value",
          "type": "uint256"
        },
        {
          "internalType": "bytes",
          "name": "data",
          "type": "bytes"
        },
        {
          "internalType": "bool",
          "name": "executed",
          "type": "bool"
        },
        {
          "internalType": "uint256",
          "name": "confirmations",
          "type": "uint256"
        }
      ],
      "stateMutability": "view",
      "type": "function"
    },
    {
      "inputs": [
        {
          "internalType": "uint256",
          "name": "_txIndex",
          "type": "uint256"
        },
        {
          "internalType": "address",
          "name": "_owner",
          "type": "address"
        }
      ],
      "name": "isConfirmed",
      "outputs": [
        {
          "internalType": "bool",
          "name": "",
          "type": "bool"
        }
      ],
      "stateMutability": "view",
      "type": "function"
    }
  ],
  "bytecode": "0x60806040523480156200001157600080fd5b506040516200140a3803806200140a833981810160405260408110156200003757600080fd5b81019080805160405193929190846401000000008211156200005857600080fd5b9083019060208201858111156200006e57600080fd5b82518660208202830111640100000000821117156200008c57600080fd5b82525081516020918201928201910280838360005b83811015620000bb578181015183820152602001620000a1565b5050505091909101604052506020015183519092501515905062000118576040805162461bcd60e51b815260206004820152600f60248201526e13dddb995c9cc81c995c5d5a5c9959608a1b604482015290519081900360640190fd5b6000811180156200012a575081518111155b620001675760405162461bcd60e51b8152600401808060200182810382526028815260200180620013e26028913960400191505060405180910390fd5b60005b82518110156200025e5760008382815181106200018357fe5b6020908102919091018101516001600160a01b0381166000908152600190925260409091205490915060ff1615620001f4576040805162461bcd60e51b815260206004820152600f60248201526e223ab83634b1b0ba329037bbb732b960891b604482015290519081900360640190fd5b6001600160a01b031660008181526001602081905260408220805460ff191682179055815480820183559180527f290decd9548b62a8d60345a988386fc84ba6bc95484008f6362f93160ef3e56390910180546001600160a01b031916909217909155016200016a565b506002555061116f80620002736000396000f3fe6080604052600436106100cb5760003560e01c80639ace38c211610074578063c64274741161004e578063c6427474146103b6578063e8b2c2431461047e578063ee22610b146104935761010b565b80639ace38c2146102fd578063a0e67e2b14610327578063c01a8c841461038c5761010b565b80632f54bf6e116100a55780632f54bf6e146101a957806333ea3dc8146101f057806380f59a65146102c45761010b565b8063025e7c271461011057806320ea8d86146101565780632e7700f0146101825761010b565b3661010b5760408051348152476020820152815133927f90890809c654f11d6e72a28fa60149770a0d11ec6c92319d6ceb2bb0a4ea1a15928290030190a2005b600080fd5b34801561011c57600080fd5b5061013a6004803603602081101561013357600080fd5b50356104bd565b604080516001600160a01b039092168252519081900360200190f35b34801561016257600080fd5b506101806004803603602081101561017957600080fd5b50356104e4565b005b34801561018e57600080fd5b506101976106d2565b60408051918252519081900360200190f35b3480156101b557600080fd5b506101dc600480360360208110156101cc57600080fd5b50356001600160a01b03166106d9565b604080519115158252519081900360200190f35b3480156101fc57600080fd5b5061021a6004803603602081101561021357600080fd5b50356106ee565b60405180866001600160a01b03166001600160a01b031681526020018581526020018060200184151515158152602001838152602001828103825285818151815260200191508051906020019080838360005b8381101561028557818101518382015260200161026d565b50505050905090810190601f1680156102b25780820380516001836020036101000a031916815260200191505b50965050505050505060405180910390f35b3480156102d057600080fd5b506101dc600480360360408110156102e757600080fd5b50803590602001356001600160a01b03166107e6565b34801561030957600080fd5b5061021a6004803603602081101561032057600080fd5b503561082b565b34801561033357600080fd5b5061033c610903565b60408051602080825283518183015283519192839290830191858101910280838360005b83811015610378578181015183820152602001610360565b505050509050019250505060405180910390f35b34801561039857600080fd5b50610180600480360360208110156103af57600080fd5b5035610965565b3480156103c257600080fd5b50610180600480360360608110156103d957600080fd5b6001600160a01b038235169160208101359181019060608101604082013564010000000081111561040957600080fd5b82018360208201111561041b57600080fd5b8035906020019184600183028401116401000000008311171561043d57600080fd5b91908080601f016020809104026020016040519081016040528093929190818152602001838380828437600092019190915250929550610b77945050505050565b34801561048a57600080fd5b50610197610daf565b34801561049f57600080fd5b50610180600480360360208110156104b657600080fd5b5035610db5565b600081815481106104ca57fe5b6000918252602090912001546001600160a01b0316905081565b3360009081526001602052604090205460ff16610537576040805162461bcd60e51b815260206004820152600c60248201526b2737ba1030b71037bbb732b960a11b604482015290519081900360640190fd5b60035481908110610582576040805162461bcd60e51b815260206004820152601060248201526f151e08191bd95cdb89dd08195e1a5cdd60821b604482015290519081900360640190fd5b816003818154811061059057fe5b600091825260209091206003600690920201015460ff16156105f9576040805162461bcd60e51b815260206004820152601360248201527f547820616c726561647920657865637574656400000000000000000000000000604482015290519081900360640190fd5b60006003848154811061060857fe5b600091825260208083203384526004600690930201918201905260409091205490915060ff1661067f576040805162461bcd60e51b815260206004820152601060248201527f5478206e6f7420636f6e6669726d656400000000000000000000000000000000604482015290519081900360640190fd5b336000818152600483016020526040808220805460ff19169055600584018054600019019055518692917ff0dca620e2e81f7841d07bcc105e1704fb01475b278a9d4c236e1c62945edd5591a350505050565b6003545b90565b60016020526000908152604090205460ff1681565b600080606060008060006003878154811061070557fe5b60009182526020918290206006909102018054600180830154600384015460058501546002808701805460408051601f600019998416156101000299909901909216939093049687018a90048a0281018a019092528582529698506001600160a01b039095169692959460ff9092169390928591908301828280156107cb5780601f106107a0576101008083540402835291602001916107cb565b820191906000526020600020905b8154815290600101906020018083116107ae57829003601f168201915b50505050509250955095509550955095505091939590929450565b600080600384815481106107f657fe5b600091825260208083206001600160a01b03871684526004600690930201919091019052604090205460ff1691505092915050565b6003818154811061083857fe5b6000918252602091829020600691909102018054600180830154600280850180546040805161010096831615969096026000190190911692909204601f81018890048802850188019092528184526001600160a01b03909416965090949192918301828280156108e95780601f106108be576101008083540402835291602001916108e9565b820191906000526020600020905b8154815290600101906020018083116108cc57829003601f168201915b505050506003830154600590930154919260ff1691905085565b6060600080548060200260200160405190810160405280929190818152602001828054801561095b57602002820191906000526020600020905b81546001600160a01b0316815260019091019060200180831161093d575b5050505050905090565b3360009081526001602052604090205460ff166109b8576040805162461bcd60e51b815260206004820152600c60248201526b2737ba1030b71037bbb732b960a11b604482015290519081900360640190fd5b60035481908110610a03576040805162461bcd60e51b815260206004820152601060248201526f151e08191bd95cdb89dd08195e1a5cdd60821b604482015290519081900360640190fd5b8160038181548110610a1157fe5b600091825260209091206003600690920201015460ff1615610a7a576040805162461bcd60e51b815260206004820152601360248201527f547820616c726561647920657865637574656400000000000000000000000000604482015290519081900360640190fd5b8260038181548110610a8857fe5b600091825260208083203384526004600690930201919091019052604090205460ff1615610afd576040805162461bcd60e51b815260206004820152601460248201527f547820616c726561647920636f6e6669726d6564000000000000000000000000604482015290519081900360640190fd5b600060038581548110610b0c57fe5b6000918252602080832033808552600693909302016004810190915260408084208054600160ff19909116811790915560058301805490910190555190935087927f5cbe105e36805f7820e291f799d5794ff948af2a5f664e580382defb6339004191a35050505050565b3360009081526001602052604090205460ff16610bca576040805162461bcd60e51b815260206004820152600c60248201526b2737ba1030b71037bbb732b960a11b604482015290519081900360640190fd5b600380546040805160a0810182526001600160a01b0387811682526020808301888152938301878152600060608501819052608085018190526001870188559690965282517fc2575a0e9e593c00f959f8c92f12db2869c3395a3b0502d05e2516446f71f85b6006870290810180547fffffffffffffffffffffffff0000000000000000000000000000000000000000169290941691909117835593517fc2575a0e9e593c00f959f8c92f12db2869c3395a3b0502d05e2516446f71f85c85015594518051949592949193610cc6937fc2575a0e9e593c00f959f8c92f12db2869c3395a3b0502d05e2516446f71f85d909101929101906110a1565b5060608201518160030160006101000a81548160ff02191690831515021790555060808201518160050155505080846001600160a01b0316336001600160a01b03167f1d7d2ab830f9cb1e20ab181b2efc46ba87bdb7f0dee22f87e780267cd6605ea186866040518083815260200180602001828103825283818151815260200191508051906020019080838360005b83811015610d6e578181015183820152602001610d56565b50505050905090810190601f168015610d9b5780820380516001836020036101000a031916815260200191505b50935050505060405180910390a450505050565b60025481565b3360009081526001602052604090205460ff16610e08576040805162461bcd60e51b815260206004820152600c60248201526b2737ba1030b71037bbb732b960a11b604482015290519081900360640190fd5b60035481908110610e53576040805162461bcd60e51b815260206004820152601060248201526f151e08191bd95cdb89dd08195e1a5cdd60821b604482015290519081900360640190fd5b8160038181548110610e6157fe5b600091825260209091206003600690920201015460ff1615610eca576040805162461bcd60e51b815260206004820152601360248201527f547820616c726561647920657865637574656400000000000000000000000000604482015290519081900360640190fd5b600060038481548110610ed957fe5b9060005260206000209060060201905060025481600501541015610f44576040805162461bcd60e51b815260206004820152601860248201527f4e6f7420656e6f75676820636f6e6669726d6174696f6e730000000000000000604482015290519081900360640190fd5b60038101805460ff19166001908117909155815482820154604051600280860180546000966001600160a01b03909616959193928392859260001991811615610100029190910116048015610fd05780601f10610fae576101008083540402835291820191610fd0565b820191906000526020600020905b815481529060010190602001808311610fbc575b505091505060006040518083038185875af1925050503d8060008114611012576040519150601f19603f3d011682016040523d82523d6000602084013e611017565b606091505b505090508061106d576040805162461bcd60e51b815260206004820152600960248201527f5478206661696c65640000000000000000000000000000000000000000000000604482015290519081900360640190fd5b604051859033907f5445f318f4f5fcfb66592e68e0cc5822aa15664039bd5f0ffde24c5a8142b1ac90600090a35050505050565b828054600181600116156101000203166002900490600052602060002090601f016020900481019282601f106110e257805160ff191683800117855561110f565b8280016001018555821561110f579182015b8281111561110f5782518255916020019190600101906110f4565b5061111b92915061111f565b5090565b6106d691905b8082111561111b576000815560010161112556fea2646970667358221220199fc17e8a77ad69af1ddedf3366dc8a117079ae324b04c1416b4bafbdde2c8f64736f6c634300060a0033496e76616c6964206e756d626572206f6620726571756972656420636f6e6669726d6174696f6e73",
  "immutableReferences": {},
  "source": "// SPDX-License-Identifier: MIT\npragma solidity >=0.6.0 <0.7.0;\n\ncontract MultiSigWallet {\n    event Deposit(address indexed sender, uint256 amount, uint256 balance);\n    event SubmitTransaction(\n        address indexed owner,\n        address indexed to,\n        uint256 indexed txIndex,\n        uint256 value,\n        bytes data\n    );\n    event ConfirmTransaction(address indexed owner, uint256 indexed txIndex);\n    event ExecuteTransaction(address indexed owner, uint256 indexed txIndex);\n    event RevokeConfirmation(address indexed owner, uint256 indexed txIndex);\n\n    address[] public owners;\n    mapping(address => bool) public isOwner;\n    uint256 public confirmationsRequired;\n\n    struct Transaction {\n        address to;\n        uint256 value;\n        bytes data;\n        bool executed;\n        mapping(address => bool) isConfirmed;\n        uint256 confirmations;\n    }\n\n    Transaction[] public transactions;\n\n    constructor(address[] memory _owners, uint256 _confirmationsRequired)\n        public\n    {\n        require(_owners.length > 0, \"Owners required\");\n        require(\n            _confirmationsRequired > 0 &&\n                _confirmationsRequired <= _owners.length,\n            \"Invalid number of required confirmations\"\n        );\n\n        for (uint256 i = 0; i < _owners.length; i++) {\n            address owner = _owners[i];\n\n            require(!isOwner[owner], \"Duplicate owner\");\n\n            isOwner[owner] = true;\n            owners.push(owner);\n        }\n\n        confirmationsRequired = _confirmationsRequired;\n    }\n\n    receive() external payable {\n        emit Deposit(msg.sender, msg.value, address(this).balance);\n    }\n\n    modifier onlyOwner() {\n        require(isOwner[msg.sender], \"Not an owner\");\n        _;\n    }\n\n    function submitTransaction(\n        address _to,\n        uint256 _value,\n        bytes memory _data\n    ) public onlyOwner {\n        uint256 txIndex = transactions.length;\n        transactions.push(\n            Transaction({\n                to: _to,\n                value: _value,\n                data: _data,\n                executed: false,\n                confirmations: 0\n            })\n        );\n\n        emit SubmitTransaction(msg.sender, _to, txIndex, _value, _data);\n    }\n\n    modifier txExists(uint256 _txIndex) {\n        require(_txIndex < transactions.length, \"Tx doesn't exist\");\n        _;\n    }\n\n    modifier notExecuted(uint256 _txIndex) {\n        require(!transactions[_txIndex].executed, \"Tx already executed\");\n        _;\n    }\n\n    modifier notConfirmed(uint256 _txIndex) {\n        require(\n            !transactions[_txIndex].isConfirmed[msg.sender],\n            \"Tx already confirmed\"\n        );\n        _;\n    }\n\n    function confirmTransaction(uint256 _txIndex)\n        public\n        onlyOwner\n        txExists(_txIndex)\n        notExecuted(_txIndex)\n        notConfirmed(_txIndex)\n    {\n        Transaction storage transaction = transactions[_txIndex];\n        transaction.isConfirmed[msg.sender] = true;\n        transaction.confirmations += 1;\n\n        emit ConfirmTransaction(msg.sender, _txIndex);\n    }\n\n    function executeTransaction(uint256 _txIndex)\n        public\n        onlyOwner\n        txExists(_txIndex)\n        notExecuted(_txIndex)\n    {\n        Transaction storage transaction = transactions[_txIndex];\n        require(\n            transaction.confirmations >= confirmationsRequired,\n            \"Not enough confirmations\"\n        );\n        transaction.executed = true;\n\n        (bool success, ) = transaction.to.call{value: transaction.value}(\n            transaction.data\n        );\n        require(success, \"Tx failed\");\n\n        emit ExecuteTransaction(msg.sender, _txIndex);\n    }\n\n    function revokeConfirmation(uint256 _txIndex)\n        public\n        onlyOwner\n        txExists(_txIndex)\n        notExecuted(_txIndex)\n    {\n        Transaction storage transaction = transactions[_txIndex];\n        require(transaction.isConfirmed[msg.sender], \"Tx not confirmed\");\n\n        transaction.isConfirmed[msg.sender] = false;\n        transaction.confirmations -= 1;\n\n        emit RevokeConfirmation(msg.sender, _txIndex);\n    }\n\n    function getOwners() public view returns (address[] memory) {\n        return owners;\n    }\n\n    function getTransactionCount() public view returns (uint256) {\n        return transactions.length;\n    }\n\n    function getTransaction(uint256 _txIndex)\n        public\n        view\n        returns (\n            address to,\n            uint256 value,\n            bytes memory data,\n            bool executed,\n            uint256 confirmations\n        )\n    {\n        Transaction storage transaction = transactions[_txIndex];\n\n        return (\n            transaction.to,\n            transaction.value,\n            transaction.data,\n            transaction.executed,\n            transaction.confirmations\n        );\n    }\n\n    function isConfirmed(uint256 _txIndex, address _owner)\n        public\n        view\n        returns (bool)\n    {\n        Transaction storage transaction = transactions[_txIndex];\n        return transaction.isConfirmed[_owner];\n    }\n}\n",
  "sourcePath": "/home/rattle/Programming/github/Multi-Sig-Wallet/contracts/MultiSigWallet.sol",
  "compiler": {
    "name": "solc",
    "version": "0.6.10+commit.00c0fcaf.Emscripten.clang"
  },
  "schemaVersion": "3.2.0",
  "updatedAt": "2020-07-09T10:16:50.484Z",
  "devdoc": {
    "methods": {}
  },
  "userdoc": {
    "methods": {}
  }
}